:0C0000000C94C6010C9400000C9400004D
:10000C000C9400000C9400000C9400000C94000064
:10001C000C9400000C9400000C9400000C94000054
:10002C000C9400000C9400000C9400000C94000044
:10003C000C9400000C9400000C9400000C94E7024B
:10004C000C9400000C9400000C9400000C94000024
:10005C000C9400000C9400000C9400000C94000014
:10006C000C9400000C9400000C9400000C94000004
:10007C000C9400000C9400000C9400000C940000F4
:10008C001027E80364000A000100001000011000B2
:10009C00010004000000000000007573657231005F
:1000AC000000000000000000000000000000706173
:1000BC00737331000000000000000000000000001D
:1000CC000000757365723200000000000000000033
:1000DC00000000000000706173733200000000002B
:1000EC000000000000000000000075736572330012
:1000FC000000000000000000000000000000706123
:10010C0073733300000000000000000000000000CA
:10011C0000007573657234000000000000000000E0
:10012C0000000000000070617373340000051405BA
:10013C0026050300313233413435364237383943E2
:10014C002A3023443F065B4F666D7D077F6F0000AE
:10015C0080BF566F6C74616765206D6561737572D5
:10016C00656D656E740053657474696E6720746890
:10017C006520636C6F636B004175746F6D6174699E
:10018C00632073687574646F776E000A456E7465CE
:10019C00722050617373776F72643A20000A4E6557
:1001AC00772050617373776F72643A20000A4C6F3A
:1001BC0067696E205375636365737366756C210A8A
:1001CC00000A4C6F67696E204661696C6564210A90
:1001DC00000A436F6E6669726D2050617373776F9E
:1001EC0072643A20000A52656769737472617469AB
:1001FC006F6E205375636365737366756C210A00AB
:10020C000A526567697374726174696F6E20466116
:10021C00696C6564210A00566F6C746167653A20DD
:10022C00252E326656000A456E7465722074696D0F
:10023C0065202848483A4D4D3A5353293A20002519
:10024C00643A25643A25640054696D653A2025307A
:10025C0032643A253032643A25303264000A456EF5
:10026C007465722073687574646F776E2064757230
:10027C006174696F6E20284D4D3A5353293A200012
:10028C0053687574646F776E20696E202530326404
:10029C003A2530326400456E746572205573657270
:1002AC006E616D653A2000496E76616C6964204F11
:1002BC007074696F6E00312E566F6C7420322E4341
:1002CC006C6F636B20332E53687574004D656E75BF
:1002DC003A20000001002D4E414E00494E460000D0
:1002EC0080C0080006009E0091005F06A600140066
:1002FC0000055E011200140572011300260584012D
:10030C000600D70838010100DD083E01100029095C
:10031C00400112003905970112004B05970110009E
:10032C005D05A90114006D05B90114008105B90121
:10033C0010009505CD011400A505DD011B00B905C4
:10034C00F1011700D4050C02040042095A011900EE
:10035C00EB05320202000406CB01230006066902FB
:10036C0011002906A2020F003A06B3021600490634
:10037C00C20201004609E00202004A09EC02000038
:10038C00F894EE27ECBBF1E0F5BFE5BFE0936C0011
:10039C008DE0A2E0BB27ED938A95E9F780E090E130
:1003AC00A0E0B1E0ED930197E9F7EEEEF2E0859174
:1003BC009591009761F0A591B59105901590BF01AD
:1003CC00F00105900D920197E1F7FB01F0CFEFEFF3
:1003DC00EDBFE0E1EEBFC0E0D5E00C9403050E9458
:1003EC008B0C00E010E00430E0E01E0734F5E02F49
:1003FC00A0E10E940C0CE2BB20E030E02430E0E0F5
:10040C003E07C4F40E94FF0991F4A4E1B0E00E94FD
:10041C00CB0A0E94FF0959F4F801A9E2B9E00E9445
:10042C001D0CEA0FFB1FE20FF31FE08107C02F5FCB
:10043C003F4FE4CF0F5F1F4FD6CFE0E00E94920CEE
:10044C0024960895BA93AA93A881B981EC91E030CF
:10045C0061F05D9BFECFA881B981EC91ECB9E8818C
:10046C00F9813196E883F983EFCF229608951A9398
:10047C000A9300E010E00615170564F40E940B0ABD
:10048C000E94110A21F4A9E3B5E0DCDF70C00F5F14
:10049C001F4FF1CF00E010E0081519057CF40E9405
:1004AC000B0A0E941B0A0E94F608E03021F4ABE410
:1004BC00B5E0C8DF5CC00F5F1F4FEECFE1E0F0E0AE
:1004CC006F01F401A8E2B0E00E94270C0E941B0A05
:1004DC000E940A09ADE5B5E0B5DF49C01A930A934D
:1004EC0000E010E006151705DCF40E940B0A0E94D0
:1004FC00110A99F40E940B0AED58F94F0E94220A36
:10050C0061F40E942A0AE15AF94FDF010E940A099C
:10051C00919AADE6B5E096DF2AC00F5F1F4FE2CF90
:10052C0000E010E008151905F4F40E940B0A0E9473
:10053C001B0A0E94F608E03099F40E940B0AED5E4B
:10054C00F84F0E94220A61F40E942A0AE150F94FE6
:10055C00DF010E940A09919AA1E8B5E073DF07C098
:10056C000F5F1F4FDFCFA5E9B5E06CDF91980991C4
:10057C00199108950E942F0A0E940A09A5EAB5E074
:10058C0061DF08950E942F0A0E94F608E03099F46A
:10059C00F401A8E2B0E00E94270CED5EF84FFA934C
:1005AC00EA93A3EAB8E00E940A09F40131964F01DC
:1005BC00A9EBB5E002C0A4EDB5E044DFCC24DD240A
:1005CC0008950A921A92FA926A937A938A939A935A
:1005DC00AA93BA93EA93FA93EFB7EA931A931CB1DE
:1005EC001A30F9F4AFE8B8E0AA0DBB1DE0E0EC93CB
:1005FC00E091B708E03089F40C2C0D2811F437DFAA
:10060C000BC0E1E0F0E0EC15FD0529F4B3DFF601D9
:10061C0031966F0101C0B6DF01C060DFAA24BB2494
:10062C0007C0F501E157F74F1083F50131965F01D3
:10063C001991E991EFBFF991E991B991A99199912A
:10064C00899179916991F990199009901895AA93CB
:10065C002A978AE0A0E0B0E0E0E5F1E00E94970C78
:10066C00AA85AA3038F4EA85F0E0DE01AE0FBF1F90
:10067C00EC9101C0E0E02B9608950E947F0CE09174
:10068C004209F091430960914409709145090E9417
:10069C00750C0E94840C09F454C02297AA81BB816A
:1006AC008C819D81E0E0F0E068EC72E40E94690BC3
:1006BC000E94040BE883F983A881B981E8EEF3E08A
:1006CC000E94360AF0E0E0933A09F0933B09A881C6
:1006DC00B981E8EEF3E00E94470CDF01E4E6F0E0BC
:1006EC000E94360AACE3B9E0F0E0ED93FC93A881EC
:1006FC00B981E4E6F0E00E94470CDF01EAE0F0E0AB
:10070C000E94360AAEE3B9E0F0E0ED93FC93A881C9
:10071C00B981EAE0F0E00E94470CAE2F98DFA0E42C
:10072C00B9E0F0E0ED93FC93EA81FB816C817D8173
:10073C00E0934209F093430960934409709345098F
:10074C002296E0E0EBBBE0913909AAE3B9E0F0E0D6
:10075C00EE0FFF1FAE0FBF1FEC91EBBB1BB2E09176
:10076C003909EC5FA1E00E940C0CE129EBBBE09194
:10077C003909F0E03196A3E0B0E00E94550CE0930B
:10078C0039090C942B09369A3699FECFE4B1AE2F69
:10079C00E5B1FE2FE0E0EA2B2F01662777270E94B8
:1007AC003B0BDF01CB01E0E0F0E060E874E40E9479
:1007BC00B70BA0E0B0E080EA90E40E94690BE093F4
:1007CC00E308F093E4086093E5087093E6080E9450
:1007DC003B0AE7EEF8E0FA93EA93E3E2F2E0FA93ED
:1007EC00EA93E091E308F091E4086091E5087091D8
:1007FC00E6080E947A0C84E00E942B072896A7EE4C
:10080C00B8E00E94BA09A091E308B091E408809185
:10081C00E5089091E60831DF0895ABEEB5E012DE05
:10082C000E94400A29F00E94470A0E944C0AF8CF05
:10083C000E94470AA4E0B6E00E941709E550F74F62
:10084C00A0E0A0830E94470AEBE4F2E0FA93EA935B
:10085C00EBECF8E00E94530AEDECF8E00E94530A2E
:10086C00EFECF8E00E94530A8CE00E94C9086096F5
:10087C00E6E0F9E0FA93EA93E4E5F2E0FA93EA931E
:10088C00E091CB08F091CC080E94580AE091CD0879
:10089C00F091CE080E94580AE091CF08F091D00850
:1008AC000E94580A8CE00E942B0760960E943B0A1B
:1008BC00A6E0B9E00E94BA090895A6E0B6E0C2DD50
:1008CC000E94400A39F0EAE1F9E0FA93EA930E94B7
:1008DC004C0AF6CFEAE1F9E0FA93EA93EEE4F2E09F
:1008EC00FA93EA93E3EDF8E00E94530AE5EDF8E0A1
:1008FC000E94530A88E00E94C9082C96A091D30844
:10090C00B091D408109739F4A091D508B091D608BD
:10091C00109709F45CC0A5EDB8E0ED91FD9131970D
:10092C00FE93EE93FF236AF4EBE3F0E0E093D5083B
:10093C00F093D608A3EDB8E0ED91FD913197FE93BD
:10094C00EE93E6E0F9E0FA93EA93ECE8F2E0FA933E
:10095C00EA93E091D308F091D4080E94580AE091F0
:10096C00D508F091D6080E94580A88E00E942B07FF
:10097C002C960E943B0AA6E0B9E00E94BA09A0910D
:10098C00D308B091D408119731F4A091D508B09147
:10099C00D608109709F004C00E945D0AE129E2BB59
:1009AC00E0E0E0932409E0932509A0912409B0919B
:1009BC002509A83EE3E0BE074CF4A1E0B0E00E949C
:1009CC00CB0AA4E2B9E00E94650AEFCF97CF12B22E
:1009DC00E0E09099E1E00E946B0A12B2E0E091999C
:1009EC00E1E00E946B0A0E945D0AE095E121E2BB06
:1009FC000E948C09E0E0EBBB0895889A899A909A42
:100A0C00E0E0EBB9E8E1EAB9E6E0E0939500E3E376
:100A1C00E9B97894A9E2B6E015DDE1DCE0932609AA
:100A2C00E03009F43BC0E091DF08F091E00830972A
:100A3C0021F1E0912609F0E0F097E0932709F0937B
:100A4C002809E130A0E0FA0711F49DDE10C0E23075
:100A5C00A0E0FA0711F4E1DE0AC0E330A0E0FA07E7
:100A6C0011F42BDF04C0AAE3B6E00E94BA09E0E05F
:100A7C00E093DF08E093E00811C0A0912609AA32A8
:100A8C0069F40E948C09E0E0EA93A0E00E947B09E3
:100A9C00A9E4B6E00E94BA090E94720AA091DF088C
:100AAC00B091E008119789F5E0E0EA93A0E00E948C
:100ABC007B09A8EDB2E00E94C9090E943B0AE091B3
:100ACC00E108F091E208A7EDB8E0EE0FFF1FAE0FC2
:100ADC00BF1F0E946D0CDF010E94BA09E091E10872
:100AEC00EF5FEBBBE091E108F091E208309711F475
:100AFC004ADE0BC0E130A0E0FA0711F48EDE05C02F
:100B0C00E230A0E0FA0709F4D8DE10B2E0E09299E6
:100B1C00E1E0A1E0B0E00E94140CA12DB0E0EA23CA
:100B2C00FB23309719F1E091DF08F091E008309742
:100B3C0041F40E94720AE0E0E093E108E093E208DD
:100B4C0015C0A091E108B091E2081196E091DD0882
:100B5C00F091DE080E94470CE093E108F093E20864
:100B6C00E0E0E093DF08E093E008EBBB56CFFFCF6B
:100B7C00BA93AA931A930A93AA81BB8112960E94E4
:100B8C006D0C309729F1AA81BB8114960E946D0CD3
:100B9C008F01309761F00230E0E01E0780F0F80121
:100BAC0031978F01AA81BB811496ED93FC93AA8196
:100BBC00BB8112960E94650A3197AC81A083AA81F1
:100BCC00BB810E946D0CFF2312F00E94650A06C0C7
:100BDC00AA81BB81EFEFFFEFED93FC9319810881A4
:100BEC008EC1BA93AA9326970E94890C10E0AC850B
:100BFC00BD85E0E0F0E0ED93FC93EA89FB8931964A
:100C0C00EA8BFB8B3197E4912E2FE03009F415C160
:100C1C00E12FE03039F4253211F411E002C00E94CA
:100C2C00790A0AC1E130A9F4253219F40E94790A33
:100C3C0002C112E040E000E02D3211F401E0FCC0F2
:100C4C002B3211F44BE2F8C0203211F440E2F4C024
:100C5C0002C0E23039F450E013E0203311F40068A4
:100C6C00EBC003C0E33009F0E7C0203310F02A33A7
:100C7C0008F007C0AAE05A9F502DE22FE0535E0FF8
:100C8C00DBC0E22FE33649F40E94800AE889F98937
:100C9C00A481AA930E94860ACEC0E33741F40E9435
:100CAC00800A0E948C0A0E942D091E2F0AC0E03770
:100CBC0061F40E94800A0E948C0A0E9439091E2F3E
:100CCC00086002600F7730E034C0E43611F0E9368A
:100CDC0011F4046002C0E53731F4ECE8F0E0EE8387
:100CEC00FF8315E00CC0E83511F4086003C0E83749
:100CFC0009F0A1C0E6E9F0E0EE83FF8314E002FF07
:100D0C0014C00E94800A0E94960AAB85AA233AF46A
:100D1C00EA85FB850E94000CEA87FB874DE2403098
:100D2C0011F01F5F01C00B7F04C00E94800A0E945B
:100D3C00960A00FD11C0151778F407FF08C002FFD2
:100D4C0004C00B7F242F115001C020E301C020E20E
:100D5C000E94790A5150EFCF312F01FF17C030306C
:100D6C00A1F003FF06C0EE81FF812591EE83FF8386
:100D7C0005C0AE81BF812D91AE83BF830E94790ADD
:100D8C00503009F051503150EACF4BC020E3EE8186
:100D9C00FF810E94710CE887F987EE81FF81329602
:100DAC00EE83FF83E885F985AA85BB85AE17BF075F
:100DBC0050F02F5FA885B985EA85FB85EA1BFB0BF4
:100DCC00EA87FB87EFCF2A3328F003FF02C0295FA5
:100DDC0001C0295D04FD1AC0213320F4A885B98512
:100DEC00119709F409C0531710F000FF01C013C08C
:100DFC0020E207FF0BC020E3006102FF07C00B7F5E
:100E0C004A930E94860A503009F051500E94790A88
:100E1C00503009F051503150A885B985129708F01F
:100E2C00B5CF00FF08C0503031F05150E0E2EA93EA
:100E3C000E94860AF8CF10E0E0CEAC85BD850E94FA
:100E4C006D0C0E94900C64960895FF92F82E2697D4
:100E5C000E948B0C0E949E0A309719F4EFEFFFEF63
:100E6C0021C0DE0116960E94FC0B8D010E949E0A89
:100E7C00EE83FF83E0E0E887E987DE011A960E94A3
:100E8C00A50AFA93EA931A930A93EEEBF5E0FA9318
:100E9C00EA93DE011A96A5DE9F01AE81BF81E0E0E8
:100EAC00EC93F9010E94920C2A96FF900895BA9344
:100EBC00AA931A93A981BA81E0E0EC93AB81BC812F
:100ECC00EC911E2FE03019F0E0E0EC9316C0A981F4
:100EDC00BA8111960E946D0C309771F0E981FA81FC
:100EEC00A181B281EC911E2FE03029F0A981BA8149
:100EFC0011960E94650A01C010E0E12F1881259619
:100F0C000895FF92BA93AA9324970E94890CE0E06B
:100F1C00F0E0E887F9874E2FE889F9893196E88B5C
:100F2C00F98B3197E4913E2FE03009F425C10E94F2
:100F3C00AA0AC1F0EDB7FEB7FA93EA934F930E9459
:100F4C00AF0A4F913E2FE03019F00E94AA0A09F423
:100F5C0007C00E94B50A1CF4EFEFFFEF0FC1EACFF8
:100F6C00432F09C1353209F0EEC050E0E889F98908
:100F7C003591E88BF98B303310F03A3308F007C019
:100F8C00AAE05A9F502DE32FE0535E0FEFCF303085
:100F9C0009F4F2C0EDB7FEB7FA93EA934F930E94AF
:100FAC00AF0A4F912E2FAE2F0E94E509E03039F099
:100FBC000E94B50A1CF4EFEFFFEFE0C0EBCF20303E
:100FCC0009F4D1C0422F503009F45FEFE32FE33620
:100FDC0099F40E94BA0AEDB7FEB7FA93EA934F93CD
:100FEC000E94AF0A4F91D801EC930E94B50A1CF4F1
:100FFC00EFEFFFEFC3C0A1C0E33741F50E94BA0A7F
:10100C00E52F5150E030F1F0EDB7FEB7FA93EA93CB
:10101C004F930E94AF0A4F913E2FE03019F00E947F
:10102C00AA0A39F00E94B50A1CF4EFEFFFEFA6C034
:10103C0009C01F930F930F5F1F4FE32FAF91BF9109
:10104C00EC93DECFD801E0E0EC9377C06894F1F834
:10105C00E894F2F8E32FE43611F0E93619F4E89449
:10106C00F1F802C0E53711F42AE008C0E83711F4B2
:10107C0020E104C0E53209F466C07EC0E0E0EE83F6
:10108C00EF836894F0F8E52F5150E03009F446C036
:10109C00EDB7FEB7FA93EA934F930E94AF0A4F91C4
:1010AC003E2FE13238F40E94B50A1CF4EFEFFFEF4B
:1010BC0065C017C0F1FC08C06894F1F83D3211F41A
:1010CC00F2F8E1CF3B32F9F2203131F4A32F0E9438
:1010DC00F009E03031F009C0A32F0E94DC09E030A8
:1010EC0021F4F0FC49C0432F19C0313610F03755AC
:1010FC0005C0313410F0375301C03053E22FAE81AC
:10110C00BF81F0E00E94270CDF01E32FF0E0EA0F33
:10111C00FB1FEE83FF83E894F0F8B5CF0E94BA0A68
:10112C00F2FE06C0EE81FF810E94000CEE83FF836D
:10113C00EE81FF81D801ED93FC93E885F98531961A
:10114C00E887F98718C0EDB7FEB7FA93EA934F9387
:10115C000E94AF0A4F91E31771F00E94B50A1CF47C
:10116C00EFEFFFEF0BC0E885F985309719F4EFEF3F
:10117C00FFEF04C001C0D0CEE885F9850E94900C29
:10118C006296FF900895FF92F82E23971A930A9374
:10119C00DE0117960E94A50A309719F4EFEFFFEFC6
:1011AC001AC0DE0111960E94FC0B8D01DE01179610
:1011BC000E94A50AEB83FC83DE0115960E94A50A0A
:1011CC00FA93EA931A930A93EDE5F7E0FA93EA930C
:1011DC00DE01189696DE198108812596FF900895F8
:1011EC00BA93AA93E991F991A991B9916D917191E1
:1011FC00671721F46623D1F7EE270895671BE1F3F7
:10120C00E1E008F4E2500895BA93AA93E991F991B8
:10121C00A991B991CD0161916D936623E1F7FC0120
:10122C000895BA93AA93BB81AA81882799276D91B7
:10123C00662351F0F981E8817191772319F06717D2
:10124C0019F0FACF0196F3CFFC0124960895BA93C6
:10125C00AA93A991B991EE27FF276D91662311F0FE
:10126C003196FBCF0895BA93AA93AA27BB27E9918D
:10127C00F9910590002011F01196FBCFFD01089516
:10128C00AA937991E991F991A991B991CD016D91B7
:10129C006623E9F711977C93772329F07A9561916E
:1012AC006D936623C1F7FC010895AA93E8B3EF7020
:1012BC00AE2FE881E07FEA2BE8BB8DE08A95F1F751
:1012CC00C29A8DE08A95F1F7C2988DE08A95F1F774
:1012DC0049C0AA93A881E9DFE881E295E883A88157
:1012EC00E4DF85E88A95F1F73DC0AA93E881F0E048
:1012FC00E65BF64FE081A981AE0FEBDFE981E0936D
:10130C004E09E881E0934F0922960895A2E00E94CD
:10131C00C50AACE0DEDFA1E00E94C50AE0E0E09384
:10132C004F09E0934E090895AA93A881AA3031F091
:10133C00E0915009A0914E09AE1758F0E0E0EA9305
:10134C00A0914F09AF5FA0934F09CFDFA881AA30BE
:10135C0049F0E0914E09EF5FE0934E09C09AA881E5
:10136C00B8DFC09821960895BA93AA931A93A981CD
:10137C00BA81ED91A983BA831E2FE03019F0A12F09
:10138C00D3DFF5CF10C0BA93AA931A93E981FA81EF
:10139C003196E983FA833197E4911E2FE03019F0EE
:1013AC00A12FC2DFF3CF188123960895AA93E1E011
:1013BC00F991F03310F0FA3308F0EE270895AA9360
:1013CC00E1E0F991F03229F0F93010F0FE3008F03C
:1013DC00EE270895AA93E1E0F991F05340F0FA302A
:1013EC0038F0FF75F750FA3010F0F03108F0EE27B6
:1013FC00089510B2E22FA1E0B0E00E94140CA12DD0
:10140C00B0E0EA23FB2330970895A8E2A09FF001F7
:10141C00A19FF00D0895E15AF94FFA93EA93AFE8C2
:10142C00B8E00E94F608E0300895E150F94FFA93C5
:10143C00EA93AFE8B8E00895FA93EA93A3EAB8E028
:10144C000E94F608E0300895E7EBF8E0FA93EA938F
:10145C00DCCFE3EAF8E0FA93EA93AFE8B8E008955A
:10146C000E94420CAE2F0C942D03E0E0EA93A1E015
:10147C000C947B09ECB1E0930509A0910509AA3005
:10148C000895EBEFF8E0FA93EA930895E5E0F9E0BC
:10149C00FA93EA93A1E00C944609662777270E94F9
:1014AC007A0C08950E94220C0E947A0C089512B2B4
:1014BC00E0E09399E1E0A1E00E940C0C0895ED911D
:1014CC00FD913196FE93EE930895A1E00E940C0CD1
:1014DC00E095E121E2BB0895E1E0F0E0E093DF0864
:1014EC00F093E00808952A93AD85BE85EF85F889C1
:1014FC0009950895E889F9893497E88BF98B089553
:10150C00AD85BE85EF85F88909950895A889B989B7
:10151C0014960E946D0CEE83FF83AE81BF810895FB
:10152C00A889B98914960E946D0CEA87FB870895E7
:10153C00DE011C960E94FC0B0E946D0C08950E940B
:10154C00FC0B0E946D0C0895A32F0E94E509E0305E
:10155C000895AC85BD85EE85FF8509950895AA850E
:10156C00BB85AC91A0300895EE85FF853497EE874E
:10157C00FF87AE85BF8514960D911C9108950E942E
:10158C006F09A3E0B0E00C94CB0A109639F0A89543
:10159C0080ED97E00197F1F71197C9F7089555235E
:1015AC0042F4503811F4E0FF04C03196691F791FE2
:1015BC006BF050E8572711F45F9373C05F3F31F025
:1015CC00660F000C57956795752F08955F93002053
:1015DC000AF073C06CC050E8192E1522880F991FA1
:1015EC009527550F879550E8072E0522660F771F14
:1015FC007527550F67950895689401C0E8945F931B
:10160C00F2DF703818F07F3F08F44BC056E1571BDF
:10161C00AAF4519558300EF4593030F0EFEFFFEF3B
:10162C006FEF7FE777F91AC077275523B9F0EE0FE4
:10163C00FF1F661F771F5A95D1F710C077275830B8
:10164C0028F0EF2FF62F672F5850F9CF552331F094
:10165C0076956795F795E7955A95D1F700200AF49A
:10166C00CDD05F910895689401C0E89430976040A4
:10167C007040B1F0002426F0772312F40094BED011
:10168C00172E7EE1112032F07A95EE0FFF1F661FA8
:10169C00111CF9CFEF2FF62F612D5F938ADF5F912D
:1016AC000895EE27FF27662777275F910895EFEFC0
:1016BC00FFEF6FE77FEF5F910895EFEFFFEF6FE7BD
:1016CC007FE75F9108955F9386DF703851F3903810
:1016DC0041F301240894791F23F41CF300203AF3FE
:1016EC00ECCF0F921F932F933F934F9311272227E9
:1016FC009927689FA0018F9F302D410D591F6B9F1B
:10170C00300D411D591F8E9F27D0BF9F25D06A9F3A
:10171C0023D0BE9F1DD0AF9F1BD0AE9F110D291F94
:10172C00391F491F591FE32FF42F652F522F4F914B
:10173C003F912F911F910F9066232AF0550FEE1FAA
:10174C00FF1F661F02C073954BF229DF5F9108954E
:10175C00100D211D391F02C0200D311D491F591FAD
:10176C0008955F9338DF703821F411200AF49FCF6D
:10177C00A4CF903809F495CF01240894970B1BF44F
:10178C00D4F30020F3CF792F1F932F933F934F93D4
:10179C0011241127222733274427552790E2AE170F
:1017AC00BF078607410730F0AE1BBF0B860B410B02
:1017BC00089401C08894551F221F331F111CAA1FA7
:1017CC00BB1F881F441F9A9551F7F901612D4F914A
:1017DC003F912F911F91662332F0550FEE1FFF1F83
:1017EC00661F7A9543F2DBDE5F9108950024AF0DFE
:1017FC00B01D0895F195E195F0400895F095609530
:10180C007095E195FF4F6F4F7F4F0895EE230E2E8D
:10181C00EA2F19F0EE0F0A94E9F70895EE230E2E35
:10182C00FD0121F0EE0FFF1F0A94E1F70895EE0F72
:10183C00FF1FEE0FFF1F08956F2F660F660B762F9D
:10184C000895FA9FF02DEB9FF00DEA9FE02DF10D1E
:10185C0008950024112490E1AA0FBB1F001C111C39
:10186C000E1A1F0A18F40E0E1F1E01C0A1609A95C5
:10187C0099F7FD01D00108951CD0EBDF0EF4BADF0F
:10188C000895E894B7FF04C0A095B095119668949C
:10189C00F7FDB0DFDEDFFD010EF4ACDF0895E89458
:1018AC00F7FF02C0A7DF6894EA23FB230EF4A2DF44
:1018BC000895E894F7FF02C09DDF6894B7FF06C057
:1018CC00A095B095119600F8039400FA0895ED9147
:1018DC00FC91119708950590F491E02D0895A8813D
:1018EC00B9818A819B8108957A936A93FA93EA93DA
:1018FC0008959A938A93BA93AA930895EA17FB07CB
:10190C006807790708955A934A933A932A931A933E
:10191C000A9308955D814C813B812A81198108814C
:10192C000895AC0FBD1F05900D928A95E1F70895AF
:00000001FF
