:060000000C941D010C949C
:1000060000000C9400000C9400000C9400000C946A
:1000160000000C9400000C9400000C9400000C945A
:1000260000000C9400000C9400000C9400000C944A
:1000360000000C9400000C9400000C9400000C943A
:1000460000000C940E020C9400000C9400000C941A
:1000560000000C9400000C9400000C9400000C941A
:1000660000000C9400000C9400000C9400000C940A
:1000760000000C9400000C9400000C9400000C94FA
:1000860000000C9400001027E80364000A00010039
:100096000010000110000100040000000000000034
:1000A600757365723100000000000000000000005A
:1000B6000000000070617373310000000000000052
:1000C6000000000000000000757365723200000039
:1000D6000000000000000000000000007061737363
:1000E60032000000000000000000000000000000D8
:1000F6007573657233000000000000000000000008
:1001060000000000706173733300000000000000FF
:1001160000000000000000007573657234000000E6
:100126000000000000000000000000007061737312
:1001360034000A456E7465722050617373776F726E
:10014600643A20000A4E65772050617373776F72A8
:10015600643A20000A4C6F67696E205375636365C5
:10016600737366756C210A000A4C6F67696E2046C8
:1001760061696C6564210A000A436F6E6669726D77
:100186002050617373776F72643A20000A52656774
:10019600697374726174696F6E20537563636573F6
:1001A6007366756C210A000A526567697374726119
:1001B60074696F6E204661696C6564210A00456E3C
:1001C60074657220557365726E616D653A20000024
:1001D60001002D4E414E00494E46000080C00800E9
:1001E60004009E009100C305A60012000005380118
:1001F600120012053801100024054A0114003405C6
:100206005A01140048055A0110005C056E011400DD
:100216006C057E011B008005920117009B05AD0150
:100226001100B205C40101002F08D60102003308EF
:10023600E2010000F894EE27ECBBF1E0F5BFE5BF64
:10024600E0936C008DE0A2E0BB27ED938A95E9F779
:1002560080E090E1A0E0B1E0ED930197E9F7E4EEEC
:10026600F1E085919591009761F0A591B591059082
:100276001590BF01F00105900D920197E1F7FB0182
:10028600F0CFEFEFEDBFE0E1EEBFC0E0D5E00C94BC
:100296005402BA93AA93A881B981EC91E03061F037
:1002A6005D9BFECFA881B981EC91ECB9E881F9811B
:1002B6003196E883F983EFCF229608951A930A932D
:1002C60000E010E00415150564F40E9487020E9400
:1002D6008D0221F4A0E0B5E0DCDF70C00F5F1F4F98
:1002E600F1CF00E010E0061517057CF40E948702A6
:1002F6000E9497020E946602E03021F4A2E1B5E076
:10030600C8DF5CC00F5F1F4FEECFE1E0F0E05F019A
:10031600F301A8E2B0E00E94AB020E9497020E949D
:100326007A02A4E2B5E0B5DF49C01A930A9300E069
:1003360010E004151505DCF40E9487020E948D0268
:1003460099F40E948702E952FA4F0E949E0261F4D4
:100356000E94A602ED53FA4FDF010E947A02919A9B
:10036600A4E3B5E096DF2AC00F5F1F4FE2CF00E09F
:1003760010E006151705F4F40E9487020E94970202
:100386000E946602E03099F40E948702E958F94F0C
:100396000E949E0261F40E94A602ED59F94FDF0108
:1003A6000E947A02919AA8E4B5E073DF07C00F5F56
:1003B6001F4FDFCFACE5B5E06CDF9198099119913D
:1003C6000895E7E0F8E0FA93EA93A3EFB7E00E9416
:1003D6007A02ACE6B5E05DDF0895E7E0F8E00E945A
:1003E6009E0299F4F301A8E2B0E00E94AB02E9583C
:1003F600F94FFA93EA93A7E0B8E00E947A02F30174
:1004060031963F01A0E8B5E002C0ABE9B5E041DFB7
:10041600AA24BB2408950A921A92FA926A937A93AE
:100426008A939A93AA93BA93EA93FA93EFB7EA93C5
:100436001A931CB11A30F9F4A3EFB7E0A80DB91D51
:10044600E0E0EC93E0911B08E03089F40A2C0B28DD
:1004560011F434DF0BC0E1E0F0E0EA15FB0529F406
:10046600B0DFF50131965F0101C0B7DF01C05DDF86
:100476008824992407C0F401ED50F84F1083F40145
:1004860031964F011991E991EFBFF991E991B9912F
:10049600A9919991899179916991F9901990099009
:1004A6001895889A899A909AE0E0EBB9E8E1EAB95A
:1004B600E6E0E0939500E3E3E9B97894A2EBB5E0D2
:1004C600E8DEFFCFFFCFBA93AA93E991F991A991FC
:1004D600B9916D917191671721F46623D1F7EE27D3
:1004E6000895671BE1F3E1E008F4E2500895BA933A
:1004F600AA93E991F991A991B991CD0161916D9371
:100506006623E1F7FC010895A8E2A09FF001A19FF0
:10051600F00D0895ED53FA4FFA93EA93A3EFB7E07F
:100526000E946602E0300895ED59F94FFA93EA9376
:10053600A3EFB7E00895FA93EA93A3EFB7E00E941A
:100546006602E0300895EBE1F8E0FA93EA93DCCF37
:10055600FA9FF02DEB9FF00DEA9FE02DF10D089527
:00000001FF
