:060000000C944D010C946C
:1000060000000C9400000C9400000C9400000C946A
:1000160000000C9400000C9400000C9400000C945A
:1000260000000C9400000C9400000C9400000C944A
:1000360000000C9400000C9400000C9400000C943A
:1000460000000C943E020C9400000C9400000C94EA
:1000560000000C9400000C9400000C9400000C941A
:1000660000000C9400000C9400000C9400000C940A
:1000760000000C9400000C9400000C9400000C94FA
:1000860000000C9400001027E80364000A00010039
:100096000010000110000100040000000000000034
:1000A600757365723100000000000000000000005A
:1000B6000000000070617373310000000000000052
:1000C6000000000000000000757365723200000039
:1000D6000000000000000000000000007061737363
:1000E60032000000000000000000000000000000D8
:1000F6007573657233000000000000000000000008
:1001060000000000706173733300000000000000FF
:1001160000000000000000007573657234000000E6
:100126000000000000000000000000007061737312
:1001360034000005140526050300566F6C746167CC
:1001460065206D6561737572656D656E74005365C6
:100156007474696E672074686520636C6F636B00E6
:100166004175746F6D617469632073687574646F2B
:10017600776E000A456E7465722050617373776FEF
:1001860072643A20000A4E65772050617373776F68
:1001960072643A20000A4C6F67696E205375636378
:1001A60065737366756C210A000A4C6F67696E2069
:1001B6004661696C6564210A000A436F6E6669725E
:1001C6006D2050617373776F72643A20000A52652E
:1001D60067697374726174696F6E205375636365C2
:1001E600737366756C210A000A52656769737472C7
:1001F6006174696F6E204661696C6564210A004509
:100206006E74657220557365726E616D653A200075
:100216004D656E753A20000001002D4E414E004995
:100226004E46000080C0080006009E009100FC05B6
:10023600A600140000054001120014055401130025
:10024600260566010600680838011200390579019D
:1002560012004B05790110005D058B0114006D0538
:100266009B01140081059B0110009505AF01140048
:10027600A505BF011B00B905D3011700D405EE0182
:100286001100EB050502010072081E020200760845
:100296002A020000F894EE27ECBBF1E0F5BFE5BFBB
:1002A600E0936C008DE0A2E0BB27ED938A95E9F719
:1002B60080E090E1A0E0B1E0ED930197E9F7ECE290
:1002C600F2E085919591009761F0A591B591059021
:1002D6001590BF01F00105900D920197E1F7FB0122
:1002E600F0CFEFEFEDBFE0E1EEBFC0E0D5E00C945C
:1002F6008402BA93AA93A881B981EC91E03061F0A7
:100306005D9BFECFA881B981EC91ECB9E881F981BA
:100316003196E883F983EFCF0C942E031A930A9350
:1003260000E010E00615170564F40E9472030E94AF
:10033600780321F4A9E3B5E0DCDF70C00F5F1F4F3F
:10034600F1CF00E010E0081519057CF40E94720355
:100356000E9482030E94DE02E03021F4ABE4B5E0A5
:10036600C8DF5CC00F5F1F4FEECFE1E0F0E06F012A
:10037600F401A8E2B0E00E949F030E9482030E945B
:10038600F202ADE5B5E0B5DF49C01A930A9300E085
:1003960010E006151705DCF40E9472030E9478032C
:1003A60099F40E947203E05FF94F0E94890361F499
:1003B6000E949103E450FA4FDF010E94F202919AE3
:1003C600ADE6B5E096DF2AC00F5F1F4FE2CF00E033
:1003D60010E008151905F4F40E9472030E948203C6
:1003E6000E94DE02E03099F40E947203E055F94F54
:1003F6000E94890361F40E949103E456F94FDF01DC
:100406000E94F202919AA1E8B5E073DF07C00F5F80
:100416001F4FDFCFA5E9B5E06CDF919809911991DF
:100426000895E0E4F8E0FA93EA93ACE2B8E00E94BB
:10043600F202A5EAB5E05DDF0895E0E4F8E00E9487
:10044600890399F4F401A8E2B0E00E949F03E05505
:10045600F94FFA93EA93A0E4B8E00E94F202F4019D
:1004660031964F01A9EBB5E002C0A4EDB5E041DF3E
:10047600CC24DD2408950A921A92FA926A937A930A
:100486008A939A93AA93BA93EA93FA93EFB7EA9365
:100496001A931CB11A30F9F4ACE2B8E0AA0DBB1DF0
:1004A600E0E0EC93E0915408E03089F40C2C0D2840
:1004B60011F434DF0BC0E1E0F0E0EC15FD0529F4A2
:1004C600B0DFF60131966F0101C0B7DF01C05DDF15
:1004D600AA24BB2407C0F501E45DF74F1083F5019C
:1004E60031965F011991E991EFBFF991E991B991BF
:1004F600A9919991899179916991F99019900990A9
:100506001895889A899A909AE0E0EBB9E8E1EAB9F9
:10051600E6E0E0939500E3E3E9B97894ABEEB5E065
:10052600E8DEA0916E08B0916F08119709F5E0E03A
:10053600EA93A0E00E941F03A6E1B2E00E945F03D7
:10054600E0E0EA93A1E00E941F03E0917008F091B9
:100556007108A8E6B8E0EE0FFF1FAE0FBF1F0E949E
:10056600A703DF010E945003E0917008EF5FEBBB29
:1005760010B2E0E09299E1E0A1E0B0E00E949603BB
:10058600A12DB0E0EA23FB23309799F0E0916E08A5
:10059600F0916F08309739F4E1E0F0E0E0936E08EF
:1005A600F0936F0806C0E0E0E0936E08E0936F08F2
:1005B600EBBBB7CFFFCFBA93AA93E991F991A99173
:1005C600B9916D917191671721F46623D1F7EE27E2
:1005D6000895671BE1F3E1E008F4E2500895BA9349
:1005E600AA93E991F991A991B991CD0161916D9380
:1005F6006623E1F7FC010895AA93E8B3EF70AE2FE6
:10060600E881E07FEA2BE8BB8DE08A95F1F7C29A94
:100616008DE08A95F1F7C2988DE08A95F1F73BC097
:10062600AA93A881E9DFE881E295E883A881E4DF5F
:1006360085E88A95F1F72FC0AA93E881F0E0EA5899
:10064600F74FE081A981AE0FEBDFE981E0937A08ED
:10065600E881E0937B0822960895AA93A881AA30A0
:1006660031F0E0917C08A0917A08AE1758F0E0E0EE
:10067600EA93A0917B08AF5FA0937B08DDDFA8819A
:10068600AA3049F0E0917A08EF5FE0937A08C09AC1
:10069600A881C6DFC09821960895BA93AA931A93A3
:1006A600A981BA81ED91A983BA831E2FE03019F092
:1006B600A12FD3DFF5CF10C0BA93AA931A93E9817D
:1006C600FA813196E983FA833197E4911E2FE0305F
:1006D60019F0A12FC2DFF3CF188123960895A8E25F
:1006E600A09FF001A19FF00D0895E450FA4FFA93F0
:1006F600EA93ACE2B8E00E94DE02E0300895E456E8
:10070600F94FFA93EA93ACE2B8E00895FA93EA93C4
:10071600ACE2B8E00E94DE02E0300895E4E5F8E0DD
:10072600FA93EA93DCCFEE230E2EFD0121F0EE0FB5
:10073600FF1F0A94E1F70895FA9FF02DEB9FF00D45
:10074600EA9FE02DF10D0895ED91FC911197089522
:00000001FF
