:040000000C94A201B9
:100004000C9400000C9400000C9400000C9400006C
:100014000C9400000C9400000C9400000C9400005C
:100024000C9400000C9400000C9400000C9400004C
:100034000C9400000C9400000C9400000C9400003C
:100044000C9400000C9490020C9400000C9400009A
:100054000C9400000C9400000C9400000C9400001C
:100064000C9400000C9400000C9400000C9400000C
:100074000C9400000C9400000C9400000C940000FC
:100084000C9400000C9400001027E80364000A009C
:100094000100001000011000010004000000000035
:1000A400000075736572310000000000000000005C
:1000B4000000000000007061737331000000000054
:1000C400000000000000000000007573657232003B
:1000D400000000000000000000000000000070614B
:1000E40073733200000000000000000000000000F4
:1000F400000075736572330000000000000000000A
:100104000000000000007061737333000000000001
:1001140000000000000000000000757365723400E8
:1001240000000000000000000000000000007061FA
:100134007373340000051405260503003F065B4F66
:10014400666D7D077F6F000080BF566F6C746167BA
:1001540065206D6561737572656D656E74005365B8
:100164007474696E672074686520636C6F636B00D8
:100174004175746F6D617469632073687574646F1D
:10018400776E000A456E7465722050617373776FE1
:1001940072643A20000A4E65772050617373776F5A
:1001A40072643A20000A4C6F67696E20537563636A
:1001B40065737366756C210A000A4C6F67696E205B
:1001C4004661696C6564210A000A436F6E66697250
:1001D4006D2050617373776F72643A20000A526520
:1001E40067697374726174696F6E205375636365B4
:1001F400737366756C210A000A52656769737472B9
:100204006174696F6E204661696C6564210A0056E9
:100214006F6C746167653A20252E326656000A4574
:100224006E7465722074696D65202848483A4D4D96
:100234003A5353293A200025643A25643A25640048
:1002440054696D653A20253032643A253032643A77
:1002540025303264000A456E7465722073687574C3
:10026400646F776E206475726174696F6E20284DB7
:100274004D3A5353293A200053687574646F776E6E
:1002840020696E20253032643A2530326400456E90
:1002940074657220557365726E616D653A20004D08
:1002A400656E753A200001002D4E414E00494E46C0
:1002B400000080C0080006009E0091003A06A600D7
:1002C400140000054E0112001405620113002605F6
:1002D40074010600B20838010100B8083E0112009A
:1002E4003905870112004B05870110005D0599014E
:1002F40014006D05A90114008105A90110009505DC
:10030400BD011400A505CD011B00B905E1011700CD
:10031400D405FC0104000A094A011900EB05220274
:1003240002000406BB012300060659021100290637
:10033400920201000E09AA0202001209B60200008C
:10034400F894EE27ECBBF1E0F5BFE5BFE0936C0059
:100354008DE0A2E0BB27ED938A95E9F780E090E178
:10036400A0E0B1E0ED930197E9F7E8EBF2E08591C5
:100374009591009761F0A591B59105901590BF01F5
:10038400F00105900D920197E1F7FB01F0CFEFEF3B
:10039400EDBFE0E1EEBFC0E0D5E00C94AC04BA934D
:1003A400AA93A881B981EC91E03061F05D9BFECF06
:1003B400A881B981EC91ECB9E881F9813196E8839F
:1003C400F983EFCF229608951A930A9300E010E080
:1003D4000615170564F40E946B090E94710921F443
:1003E400A9E3B5E0DCDF70C00F5F1F4FF1CF00E081
:1003F40010E0081519057CF40E946B090E947B0922
:100404000E946208E03021F4ABE4B5E0C8DF5CC0D0
:100414000F5F1F4FEECFE1E0F0E06F01F401A8E2BF
:10042400B0E00E947B0B0E947B090E947608ADE538
:10043400B5E0B5DF49C01A930A9300E010E0061551
:100444001705DCF40E946B090E94710999F40E945B
:100454006B09E25BF94F0E94820961F40E948A09E8
:10046400E65CF94FDF010E947608919AADE6B5E0AB
:1004740096DF2AC00F5F1F4FE2CF00E010E008159F
:100484001905F4F40E946B090E947B090E9462081A
:10049400E03099F40E946B09E251F94F0E948209FD
:1004A40061F40E948A09E652F94FDF010E9476083E
:1004B400919AA1E8B5E073DF07C00F5F1F4FDFCF4C
:1004C400A5E9B5E06CDF91980991199108950E940E
:1004D4008F090E947608A5EAB5E061DF08950E94BD
:1004E4008F090E946208E03099F4F401A8E2B0E0B8
:1004F4000E947B0BE251F94FFA93EA93AEE7B8E01E
:100504000E947608F40131964F01A9EBB5E002C0D0
:10051400A4EDB5E044DFCC24DD2408950A921A92B8
:10052400FA926A937A938A939A93AA93BA93EA93E0
:10053400FA93EFB7EA931A931CB11A30F9F4AAE6C6
:10054400B8E0AA0DBB1DE0E0EC93E0919208E03026
:1005540089F40C2C0D2811F437DF0BC0E1E0F0E036
:10056400EC15FD0529F4B3DFF60131966F0101C0E6
:10057400B6DF01C060DFAA24BB2407C0F501E65939
:10058400F74F1083F50131965F011991E991EFBF9F
:10059400F991E991B991A991999189917991699187
:1005A400F990199009901895AA932A978AE0A0E0E7
:1005B400B0E0E0E4F1E00E94EB0BAA85AA3038F445
:1005C400EA85F0E0DE01AE0FBF1FEC9101C0E0E070
:1005D4002B9608950E94D30BE0910A09F0910B0920
:1005E40060910C0970910D090E94C90B0E94D80BEF
:1005F40009F454C02297AA81BB818C819D81E0E0DB
:10060400F0E068EC72E40E94C20A0E945D0AE8838A
:10061400F983A881B981E8EEF3E00E949609F0E03D
:10062400E0930209F0930309A881B981E8EEF3E0AD
:100634000E949B0BDF01E4E6F0E00E949609A4E02F
:10064400B9E0F0E0ED93FC93A881B981E4E6F0E031
:100654000E949B0BDF01EAE0F0E00E949609A6E00D
:10066400B9E0F0E0ED93FC93A881B981EAE0F0E011
:100674000E949B0BAE2F98DFA8E0B9E0F0E0ED9369
:10068400FC93EA81FB816C817D81E0930A09F093FC
:100694000B0960930C0970930D092296E0E0EBBB03
:1006A400E0910109A2E0B9E0F0E0EE0FFF1FAE0F08
:1006B400BF1FEC91EBBB1BB2E0910109EC5FA1E021
:1006C4000E94650BE129EBBBE0910109F0E0319652
:1006D400A3E0B0E00E94A90BE09301090C949708F1
:1006E400369A3699FECFE4B1AE2FE5B1FE2FE0E0A5
:1006F400EA2B2F01662777270E94940ADF01CB019A
:10070400E0E0F0E060E874E40E94100BA0E0B0E0E8
:1007140080EA90E40E94C20AE093BE08F093BF0806
:100724006093C0087093C1080E949B09E2ECF8E052
:10073400FA93EA93E3E1F2E0FA93EA93E091BE08D4
:10074400F091BF086091C0087091C1080E94CE0B5F
:1007540084E00E9497062896A2ECB8E00E9426093D
:10076400A091BE08B091BF088091C0089091C108C3
:1007740031DF0895ABEEB5E012DE0E94A00929F046
:100784000E94A7090E94AC09F8CF0E94A709A4E01F
:10079400B6E00E948308EA52F74FA0E0A0830E94CB
:1007A400A709EBE3F2E0FA93EA93E6EAF8E00E94A1
:1007B400B309E8EAF8E00E94B309EAEAF8E00E9423
:1007C400B3098CE00E9435086096E1EEF8E0FA93F4
:1007D400EA93E4E4F2E0FA93EA93E091A608F09154
:1007E400A7080E94B809E091A808F091A9080E94FE
:1007F400B809E091AA08F091AB080E94B8098CE00E
:100804000E94970660960E949B09A1EEB8E00E94A0
:1008140026090895A6E0B6E0C2DD0E94A00939F0D9
:10082400E5EFF8E0FA93EA930E94AC09F6CFE5EF1E
:10083400F8E0FA93EA93EEE3F2E0FA93EA93EEEA4D
:10084400F8E00E94B309E0EBF8E00E94B30988E005
:100854000E9435082C96A091AE08B091AF0810976D
:1008640039F4A091B008B091B108109709F45CC0B4
:10087400A0EBB8E0ED91FD913197FE93EE93FF2349
:100884006AF4EBE3F0E0E093B008F093B108AEEA69
:10089400B8E0ED91FD913197FE93EE93E1EEF8E02F
:1008A400FA93EA93ECE7F2E0FA93EA93E091AE0864
:1008B400F091AF080E94B809E091B008F091B10836
:1008C4000E94B80988E00E9497062C960E949B0912
:1008D400A1EEB8E00E942609A091AE08B091AF083D
:1008E400119731F4A091B008B091B108109709F0B4
:1008F40004C00E94BD09E129E2BBE0E0E093FF08E7
:10090400E0930009A091FF08B0910009A83EE3E03C
:10091400BE074CF4A1E0B0E00E94240AAFEFB8E0B7
:100924000E94C509EFCF97CF12B2E0E09099E1E0C1
:100934000E94CB0912B2E0E09199E1E00E94CB0958
:100944000E94BD09E095E121E2BB0E94F808E0E0C5
:10095400EBBB0895889A899A909AE0E0EBB9E8E1B4
:10096400EAB9E6E0E0939500E3E3E9B97894A9E213
:10097400B6E015DDA091BA08B091BB08119789F5CE
:10098400E0E0EA93A0E00E94E708A3EAB2E00E9454
:1009940035090E949B09E091BC08F091BD08A2EBC7
:1009A400B8E0EE0FFF1FAE0FBF1F0E94C10BDF01A7
:1009B4000E942609E091BC08EF5FEBBBE091BC0804
:1009C400F091BD08309711F48BDE0BC0E130A0E04C
:1009D400FA0711F4CFDE05C0E230A0E0FA0709F40B
:1009E40019DF10B2E0E09299E1E0A1E0B0E00E94EA
:1009F4006D0BA12DB0E0EA23FB23309739F1E09190
:100A0400BA08F091BB08309761F4E1E0F0E0E093BC
:100A1400BA08F093BB08E0E0E093BC08E093BD089B
:100A240015C0A091BC08B091BD081196E091B8081A
:100A3400F091B9080E949B0BE093BC08F093BD08A9
:100A4400E0E0E093BA08E093BB08EBBB93CFFFCFA1
:100A5400BA93AA931A930A93AA81BB8112960E940D
:100A6400C10B309729F1AA81BB8114960E94C10B56
:100A74008F01309761F00230E0E01E0780F0F8014A
:100A840031978F01AA81BB811496ED93FC93AA81BF
:100A9400BB8112960E94C5093197AC81A083AA81BB
:100AA400BB810E94C10BFF2312F00E94C50906C03E
:100AB400AA81BB81EFEFFFEFED93FC9319810881CD
:100AC4008EC1BA93AA9326970E94DD0B10E0AC85E1
:100AD400BD85E0E0F0E0ED93FC93EA89FB89319673
:100AE400EA8BFB8B3197E4912E2FE03009F415C18A
:100AF400E12FE03039F4253211F411E002C00E94F4
:100B0400D2090AC1E130A9F4253219F40E94D209AC
:100B140002C112E040E000E02D3211F401E0FCC01B
:100B24002B3211F44BE2F8C0203211F440E2F4C04D
:100B340002C0E23039F450E013E0203311F40068CD
:100B4400EBC003C0E33009F0E7C0203310F02A33D0
:100B540008F007C0AAE05A9F502DE22FE0535E0F21
:100B6400DBC0E22FE33649F40E94D909E889F98908
:100B7400A481AA930E94DF09CEC0E33741F40E9406
:100B8400D9090E94E5090E9499081E2F0AC0E0377E
:100B940061F40E94D9090E94E5090E94A5081E2F4C
:100BA400086002600F7730E034C0E43611F0E936B3
:100BB40011F4046002C0E53731F4ECE8F0E0EE83B0
:100BC400FF8315E00CC0E83511F4086003C0E83772
:100BD40009F0A1C0E6E9F0E0EE83FF8314E002FF30
:100BE40014C00E94D9090E94EF09AB85AA233AF4E4
:100BF400EA85FB850E94590BEA87FB874DE240306A
:100C040011F01F5F01C00B7F04C00E94D9090E942C
:100C1400EF0900FD11C0151778F407FF08C002FFA3
:100C240004C00B7F242F115001C020E301C020E237
:100C34000E94D2095150EFCF312F01FF17C030303D
:100C4400A1F003FF06C0EE81FF812591EE83FF83AF
:100C540005C0AE81BF812D91AE83BF830E94D209AE
:100C6400503009F051503150EACF4BC020E3EE81AF
:100C7400FF810E94C50BE887F987EE81FF813296D8
:100C8400EE83FF83E885F985AA85BB85AE17BF0788
:100C940050F02F5FA885B985EA85FB85EA1BFB0B1D
:100CA400EA87FB87EFCF2A3328F003FF02C0295FCE
:100CB40001C0295D04FD1AC0213320F4A885B9853B
:100CC400119709F409C0531710F000FF01C013C0B5
:100CD40020E207FF0BC020E3006102FF07C00B7F87
:100CE4004A930E94DF09503009F051500E94D20902
:100CF400503009F051503150A885B985129708F049
:100D0400B5CF00FF08C0503031F05150E0E2EA9313
:100D14000E94DF09F8CF10E0E0CEAC85BD850E94CB
:100D2400C10B0E94E40B64960895FF92F82E269757
:100D34000E94DF0B0E94F709309719F4EFEFFFEFE1
:100D440021C0DE0116960E94550B8D010E94F70901
:100D5400EE83FF83E0E0E887E987DE011A960E94CC
:100D6400FE09FA93EA931A930A93EAE2F5E0FA93F6
:100D7400EA93DE011A96A5DE9F01AE81BF81E0E011
:100D8400EC93F9010E94E60B2A96FF900895BA931A
:100D9400AA931A93A981BA81E0E0EC93AB81BC8158
:100DA400EC911E2FE03019F0E0E0EC9316C0A9811D
:100DB400BA8111960E94C10B309771F0E981FA81D2
:100DC400A181B281EC911E2FE03029F0A981BA8172
:100DD40011960E94C50901C010E0E12F18812596E3
:100DE4000895FF92BA93AA9324970E94DD0BE0E042
:100DF400F0E0E887F9874E2FE889F9893196E88B86
:100E0400F98B3197E4913E2FE03009F425C10E941B
:100E1400030AC1F0EDB7FEB7FA93EA934F930E9429
:100E2400080A4F913E2FE03019F00E94030A09F49A
:100E340007C00E940E0A1CF4EFEFFFEF0FC1EACFC8
:100E4400432F09C1353209F0EEC050E0E889F98931
:100E54003591E88BF98B303310F03A3308F007C042
:100E6400AAE05A9F502DE32FE0535E0FEFCF3030AE
:100E740009F4F2C0EDB7FEB7FA93EA934F930E94D8
:100E8400080A4F912E2FAE2F0E945109E03039F0FD
:100E94000E940E0A1CF4EFEFFFEFE0C0EBCF20300E
:100EA40009F4D1C0422F503009F45FEFE32FE33649
:100EB40099F40E94130AEDB7FEB7FA93EA934F939D
:100EC4000E94080A4F91D801EC930E940E0A1CF468
:100ED400EFEFFFEFC3C0A1C0E33741F50E94130A4F
:100EE400E52F5150E030F1F0EDB7FEB7FA93EA93F5
:100EF4004F930E94080A4F913E2FE03019F00E9450
:100F0400030A39F00E940E0A1CF4EFEFFFEFA6C0AB
:100F140009C01F930F930F5F1F4FE32FAF91BF9132
:100F2400EC93DECFD801E0E0EC9377C06894F1F85D
:100F3400E894F2F8E32FE43611F0E93619F4E89472
:100F4400F1F802C0E53711F42AE008C0E83711F4DB
:100F540020E104C0E53209F466C07EC0E0E0EE831F
:100F6400EF836894F0F8E52F5150E03009F446C05F
:100F7400EDB7FEB7FA93EA934F930E94080A4F9194
:100F84003E2FE13238F40E940E0A1CF4EFEFFFEF1B
:100F940065C017C0F1FC08C06894F1F83D3211F443
:100FA400F2F8E1CF3B32F9F2203131F4A32F0E9461
:100FB4005C09E03031F009C0A32F0E944809E030F9
:100FC40021F4F0FC49C0432F19C0313610F03755D5
:100FD40005C0313410F0375301C03053E22FAE81D5
:100FE400BF81F0E00E947B0BDF01E32FF0E0EA0F0A
:100FF400FB1FEE83FF83E894F0F8B5CF0E94130A39
:10100400F2FE06C0EE81FF810E94590BEE83FF833E
:10101400EE81FF81D801ED93FC93E885F985319643
:10102400E887F98718C0EDB7FEB7FA93EA934F93B0
:101034000E94080A4F91E31771F00E940E0A1CF4F3
:10104400EFEFFFEF0BC0E885F985309719F4EFEF68
:10105400FFEF04C001C0D0CEE885F9850E94E40BFF
:101064006296FF900895FF92F82E23971A930A939D
:10107400DE0117960E94FE09309719F4EFEFFFEF97
:101084001AC0DE0111960E94550B8D01DE011796E0
:101094000E94FE09EB83FC83DE0115960E94FE0983
:1010A400FA93EA931A930A93E9ECF6E0FA93EA9333
:1010B400DE01189696DE198108812596FF90089521
:1010C400BA93AA93E991F991A991B9916D9171910A
:1010D400671721F46623D1F7EE270895671BE1F320
:1010E400E1E008F4E2500895BA93AA93E991F991E2
:1010F400A991B991CD0161916D936623E1F7FC014A
:101104000895BA93AA93BB81AA81882799276D91E0
:10111400662351F0F981E8817191772319F06717FB
:1011240019F0FACF0196F3CFFC0124960895BA93EF
:10113400AA93A991B991EE27FF276D91662311F027
:101144003196FBCF0895BA93AA93AA27BB27E991B6
:10115400F9910590002011F01196FBCFFD0108953F
:10116400AA937991E991F991A991B991CD016D91E0
:101174006623E9F711977C93772329F07A95619197
:101184006D936623C1F7FC010895AA93E8B3EF7049
:10119400AE2FE881E07FEA2BE8BB8DE08A95F1F77A
:1011A400C29A8DE08A95F1F7C2988DE08A95F1F79D
:1011B40049C0AA93A881E9DFE881E295E883A88180
:1011C400E4DF85E88A95F1F73DC0AA93E881F0E071
:1011D400EE5EF64FE081A981AE0FEBDFE981E0938B
:1011E4001609E881E093170922960895A2E00E9467
:1011F4001E0AACE0DEDFA1E00E941E0AE0E0E093FC
:101204001709E09316090895AA93A881AA3031F02A
:10121400E0911809A0911609AE1758F0E0E0EA939E
:10122400A0911709AF5FA0931709CFDFA881AA3057
:1012340049F0E0911609EF5FE0931609C09AA8817E
:10124400B8DFC09821960895BA93AA931A93A981F6
:10125400BA81ED91A983BA831E2FE03019F0A12F32
:10126400D3DFF5CF10C0BA93AA931A93E981FA8118
:101274003196E983FA833197E4911E2FE03019F017
:10128400A12FC2DFF3CF188123960895AA93E1E03A
:10129400F991F03310F0FA3308F0EE270895AA9389
:1012A400E1E0F991F03229F0F93010F0FE3008F065
:1012B400EE270895AA93E1E0F991F05340F0FA3053
:1012C40038F0FF75F750FA3010F0F03108F0EE27DF
:1012D4000895A8E2A09FF001A19FF00D0895E65C97
:1012E400F94FFA93EA93AAE6B8E00E946208E03064
:1012F4000895E652F94FFA93EA93AAE6B8E00895FE
:10130400FA93EA93AEE7B8E00E946208E0300895E9
:10131400E2E9F8E0FA93EA93DCCFEEE7F8E0FA9337
:10132400EA93AAE6B8E008950E94960BAE2F0C94B7
:10133400D602E0E0EA93A1E00C94E708ECB1E09374
:10134400E008A091E008AA300895E6EDF8E0FA93E9
:10135400EA930895E0EEF8E0FA93EA93A1E00C949E
:10136400B208662777270E94CE0B08950E94760B59
:101374000E94CE0B089512B2E0E09399E1E0A1E05F
:101384000E94650B0895ED91FD913196FE93EE93C5
:101394000895A1E00E94650BE095E121E2BB089568
:1013A4002A93AD85BE85EF85F88909950895E88966
:1013B400F9893497E88BF98B0895AD85BE85EF855F
:1013C400F88909950895A889B98914960E94C10BD2
:1013D400EE83FF83AE81BF810895A889B9891496ED
:1013E4000E94C10BEA87FB870895DE011C960E94C8
:1013F400550B0E94C10B08950E94550B0E94C10B0E
:101404000895A32F0E945109E0300895AC85BD854D
:10141400EE85FF8509950895AA85BB85AC91A0301A
:101424000895EE85FF853497EE87FF87AE85BF85E7
:1014340014960D911C9108950E94DB08A3E0B0E07E
:101444000C94240A109639F0A89580ED97E0019742
:10145400F1F71197C9F70895552342F4503811F460
:10146400E0FF04C03196691F791F6BF050E85727DD
:1014740011F45F9373C05F3F31F0660F000C579512
:101484006795752F08955F9300200AF073C06CC0B0
:1014940050E8192E1522880F991F9527550F879507
:1014A40050E8072E0522660F771F7527550F67959D
:1014B4000895689401C0E8945F93F2DF703818F0DF
:1014C4007F3F08F44BC056E1571BAAF4519558309E
:1014D4000EF4593030F0EFEFFFEF6FEF7FE777F95D
:1014E4001AC077275523B9F0EE0FFF1F661F771F29
:1014F4005A95D1F710C07727583028F0EF2FF62FE0
:10150400672F5850F9CF552331F076956795F795A5
:10151400E7955A95D1F700200AF4CDD05F9108954C
:10152400689401C0E894309760407040B1F00024A2
:1015340026F0772312F40094BED0172E7EE11120FA
:1015440032F07A95EE0FFF1F661F111CF9CFEF2FB3
:10155400F62F612D5F938ADF5F910895EE27FF27B1
:10156400662777275F910895EFEFFFEF6FE77FEF2F
:101574005F910895EFEFFFEF6FE77FE75F910895C5
:101584005F9386DF703851F3903841F30124089457
:10159400791F23F41CF300203AF3ECCF0F921F932E
:1015A4002F933F934F93112722279927689FA001D8
:1015B4008F9F302D410D591F6B9F300D411D591FB9
:1015C4008E9F27D0BF9F25D06A9F23D0BE9F1DD05A
:1015D400AF9F1BD0AE9F110D291F391F491F591FE3
:1015E400E32FF42F652F522F4F913F912F911F918D
:1015F4000F9066232AF0550FEE1FFF1F661F02C0CF
:1016040073954BF229DF5F910895100D211D391F49
:1016140002C0200D311D491F591F08955F9338DF03
:10162400703821F411200AF49FCFA4CF903809F424
:1016340095CF01240894970B1BF4D4F30020F3CF27
:10164400792F1F932F933F934F9311241127222710
:1016540033274427552790E2AE17BF078607410773
:1016640030F0AE1BBF0B860B410B089401C088946D
:10167400551F221F331F111CAA1FBB1F881F441F85
:101684009A9551F7F901612D4F913F912F911F9137
:10169400662332F0550FEE1FFF1F661F7A9543F243
:1016A400DBDE5F9108950024AF0DB01D0895F19520
:1016B400E195F0400895F09560957095E195FF4FA0
:1016C4006F4F7F4F0895EE230E2EEA2F19F0EE0F81
:1016D4000A94E9F70895EE230E2EFD0121F0EE0F92
:1016E400FF1F0A94E1F708956F2F660F660B762F9C
:1016F4000895FA9FF02DEB9FF00DEA9FE02DF10D78
:1017040008950024112490E1AA0FBB1F001C111C92
:101714000E1A1F0A18F40E0E1F1E01C0A1609A951E
:1017240099F7FD01D00108951CD0EBDF0EF4BFDF63
:101734000895E894B7FF04C0A095B09511966894F5
:10174400F7FDB5DFDEDFFD010EF4B1DF0895E894A7
:10175400F7FF02C0ACDF6894EA23FB230EF4A7DF93
:101764000895E894F7FF02C0A2DF6894B7FF06C0AB
:10177400A095B095119600F8039400FA0895ED91A0
:10178400FC91119708950590F491E02D0895A88196
:10179400B9818A819B8108957A936A93FA93EA9333
:1017A40008959A938A93BA93AA930895EA17FB0724
:1017B4006807790708955A934A933A932A931A9398
:1017C4000A9308955D814C813B812A8119810881A6
:1017D4000895AC0FBD1F05900D928A95E1F7089509
:00000001FF
