:020000000C945E
:10000200E9000C9400000C9400000C9400000C9485
:1000120000000C9400000C9400000C9400000C945E
:1000220000000C9400000C9400000C9400000C944E
:1000320000000C9400000C9400000C9400000C943E
:1000420000000C9400000C9478010C9400000C94B5
:1000520000000C9400000C9400000C9400000C941E
:1000620000000C9400000C9400000C9400000C940E
:1000720000000C9400000C9400000C9400000C94FE
:1000820000000C9400000C9400001027E8036400A8
:100092000A0001000010000110000100040000002D
:1000A200757365723100000000000000000000005E
:1000B2000000000070617373310000000000000056
:1000C200000000000000000075736572320000003D
:1000D2000000000000000000000000007061737367
:1000E20032000000000000000000000000000000DC
:1000F200757365723300000000000000000000000C
:100102000000000070617373330000000000000003
:1001120000000000000000007573657234000000EA
:100122000000000000000000000000007061737316
:1001320034000A456E7465722050617373776F7272
:10014200643A20000A4E65772050617373776F72AC
:10015200643A20000A4C6F67696E205375636365C9
:10016200737366756C210A000A4C6F67696E2046CC
:1001720061696C6564210A00456E7465722055736D
:1001820065726E616D653A20000001002D4E414E90
:1001920000494E46000080C0040004009E00910009
:1001A2005705A20012000005340110001205460195
:1001B200140022055601100036056A011100460599
:1001C2007A0101001F068C0102002306980100003B
:1001D200F894EE27ECBBF1E0F5BFE5BFE0936C00CD
:1001E2008DE0A2E0BB27ED938A95E9F780E090E1EC
:1001F200A0E0B1E0ED930197E9F7EAE9F1E085913A
:100202009591009761F0A591B59105901590BF0168
:10021200F00105900D920197E1F7FB01F0CFEFEFAE
:10022200EDBFE0E1EEBFC0E0D5E00C94AF01BA93C0
:10023200AA93A881B981EC91E03061F05D9BFECF79
:10024200A881B981EC91ECB9E881F9813196E88312
:10025200F983EFCF229608951A930A9300E010E0F3
:100262000415150554F40E94E20121F4A0E0B5E062
:10027200DEDF3AC00F5F1F4FF3CFA2E1B5E0D7DF59
:1002820033C01A930A9300E010E00415150544F5F3
:100292000E94E20111F5A8E2A09FF001A19FF00DDA
:1002A200E559FA4FFA93EA93A7EFB5E00E94C1012C
:1002B200E03099F4EBE0F6E0FA93EA93A8E2A09F2B
:1002C200F001A19FF00DE95AFA4FDF010E94D5011A
:1002D200919AA2E2B5E0ABDF07C00F5F1F4FD5CF07
:1002E200A6E3B5E0A4DF91980991199108950A92C5
:1002F2001A92FA926A937A938A939A93AA93BA93E6
:10030200EA93FA93EFB7EA931A931CB11A3081F485
:10031200A7EFB5E0A60DB71DE0E0EC93E0910B0668
:10032200E03011F499DF01C0ACDF6624772407C006
:10033200F301E950FA4F1083F30131963F0119910D
:10034200E991EFBFF991E991B991A99199918991B7
:1003520079916991F990199009901895889A899ADA
:10036200909AE0E0EBB9E8E1EAB9E6E0E0939500C3
:10037200E3E3E9B97894A6E4B5E059DFFFCFFFCF14
:10038200BA93AA93E991F991A991B9916D91719159
:10039200671721F46623D1F7EE270895671BE1F36F
:1003A200E1E008F4E2500895BA93AA93E991F99131
:1003B200A991B991CD0161916D936623E1F7FC0199
:1003C2000895A8E2A09FF001A19FF00DE95AFA4F0B
:1003D200FA93EA93A7EFB5E00E94C101E0300895D5
:00000001FF
