:040000000C949C01BF
:100004000C9400000C9400000C9400000C9400006C
:100014000C9400000C9400000C9400000C9400005C
:100024000C9400000C9400000C9400000C9400004C
:100034000C9400000C9400000C9400000C9400003C
:100044000C9400000C948D020C9400000C9400009D
:100054000C9400000C9400000C9400000C9400001C
:100064000C9400000C9400000C9400000C9400000C
:100074000C9400000C9400000C9400000C940000FC
:100084000C9400000C9400001027E80364000A009C
:100094000100001000011000010004000000000035
:1000A400000075736572310000000000000000005C
:1000B4000000000000007061737331000000000054
:1000C400000000000000000000007573657232003B
:1000D400000000000000000000000000000070614B
:1000E40073733200000000000000000000000000F4
:1000F400000075736572330000000000000000000A
:100104000000000000007061737333000000000001
:1001140000000000000000000000757365723400E8
:1001240000000000000000000000000000007061FA
:100134007373340000051405260503003F065B4F66
:10014400666D7D077F6F000080BF566F6C746167BA
:1001540065206D6561737572656D656E74005365B8
:100164007474696E672074686520636C6F636B00D8
:100174004175746F6D617469632073687574646F1D
:10018400776E000A456E7465722050617373776FE1
:1001940072643A20000A4E65772050617373776F5A
:1001A40072643A20000A4C6F67696E20537563636A
:1001B40065737366756C210A000A4C6F67696E205B
:1001C4004661696C6564210A000A436F6E66697250
:1001D4006D2050617373776F72643A20000A526520
:1001E40067697374726174696F6E205375636365B4
:1001F400737366756C210A000A52656769737472B9
:100204006174696F6E204661696C6564210A0056E9
:100214006F6C746167653A20252E326656000A4574
:100224006E7465722074696D65202848483A4D4D96
:100234003A5353293A200025643A25643A25640048
:1002440054696D653A20253032643A253032643A77
:1002540025303264000A456E7465722073687574C3
:10026400646F776E206475726174696F6E20284DB7
:100274004D3A5353293A200053687574646F776E6E
:1002840020696E20253032643A2530326400456E90
:1002940074657220557365726E616D653A20004D08
:1002A400656E753A200001002D4E414E00494E46C0
:1002B400000080C0080006009E0091003A06A600D7
:1002C400140000054E0112001405620113002605F6
:1002D40074010600B20838011200390587011200C2
:1002E4004B05870110005D05990114006D05A901F6
:1002F40014008105A90110009505BD011400A50590
:10030400CD011B00B905E1011700D405FC0119005A
:10031400EB05220202000406BB0123000606590273
:100324001100290692020100FF08AA020200030933
:10033400B6020000F894EE27ECBBF1E0F5BFE5BF90
:10034400E0936C008DE0A2E0BB27ED938A95E9F77A
:1003540080E090E1A0E0B1E0ED930197E9F7E8EBEC
:10036400F2E085919591009761F0A591B591059082
:100374001590BF01F00105900D920197E1F7FB0183
:10038400F0CFEFEFEDBFE0E1EEBFC0E0D5E00C94BD
:10039400D302BA93AA93A881B981EC91E03061F0B9
:1003A4005D9BFECFA881B981EC91ECB9E881F9811C
:1003B4003196E883F983EFCF0C947D031A930A9363
:1003C40000E010E00615170564F40E94C1030E94C2
:1003D400C70321F4A9E3B5E0DCDF70C00F5F1F4F52
:1003E400F1CF00E010E0081519057CF40E94C10368
:1003F4000E94D1030E942D03E03021F4ABE4B5E068
:10040400C8DF5CC00F5F1F4FEECFE1E0F0E06F018B
:10041400F401A8E2B0E00E94EE030E94D1030E941E
:100424004103ADE5B5E0B5DF49C01A930A9300E096
:1004340010E006151705DCF40E94C1030E94C703EF
:1004440099F40E94C103E25BF94F0E94D80361F45E
:100454000E94E003E65CF94FDF010E944103919A98
:10046400ADE6B5E096DF2AC00F5F1F4FE2CF00E094
:1004740010E008151905F4F40E94C1030E94D10389
:100484000E942D03E03099F40E94C103E251F94F18
:100494000E94D80361F40E94E003E652F94FDF01A1
:1004A4000E944103919AA1E8B5E073DF07C00F5F92
:1004B4001F4FDFCFA5E9B5E06CDF91980991199141
:1004C4000895EEE7F8E0FA93EA93AAE6B8E00E940A
:1004D4004103A5EAB5E05DDF0895EEE7F8E00E9488
:1004E400D80399F4F401A8E2B0E00E94EE03E251CB
:1004F400F94FFA93EA93AEE7B8E00E944103F4019E
:1005040031964F01A9EBB5E002C0A4EDB5E041DF9F
:10051400CC24DD2408950A921A92FA926A937A936B
:100524008A939A93AA93BA93EA93FA93EFB7EA93C6
:100534001A931CB11A30F9F4AAE6B8E0AA0DBB1D4F
:10054400E0E0EC93E0919208E03089F40C2C0D2863
:1005540011F434DF0BC0E1E0F0E0EC15FD0529F403
:10056400B0DFF60131966F0101C0B7DF01C05DDF76
:10057400AA24BB2407C0F501E659F74F1083F501FF
:1005840031965F011991E991EFBFF991E991B99120
:10059400A9919991899179916991F990199009900A
:1005A4001895889A899A909AE0E0EBB9E8E1EAB95B
:1005B400E6E0E0939500E3E3E9B97894A9E2B6E0D4
:1005C400E8DEA091B808B091B908119709F5E0E008
:1005D400EA93A0E00E946E03A3EAB2E00E94AE0395
:1005E400E0E0EA93A1E00E946E03E091BA08F09182
:1005F400BB08A2EBB8E0EE0FFF1FAE0FBF1F0E94B7
:10060400F603DF010E949F03E091BA08EF5FEBBBA2
:1006140010B2E0E09299E1E0A1E0B0E00E94E503CD
:10062400A12DB0E0EA23FB23309799F0E091B808BC
:10063400F091B908309739F4E1E0F0E0E093B808BC
:10064400F093B90806C0E0E0E093B808E093B90875
:10065400EBBBB7CFFFCFBA93AA93E991F991A991D4
:10066400B9916D917191671721F46623D1F7EE2743
:100674000895671BE1F3E1E008F4E2500895BA93AA
:10068400AA93E991F991A991B991CD0161916D93E1
:100694006623E1F7FC010895AA93E8B3EF70AE2F47
:1006A400E881E07FEA2BE8BB8DE08A95F1F7C29AF6
:1006B4008DE08A95F1F7C2988DE08A95F1F73BC0F9
:1006C400AA93A881E9DFE881E295E883A881E4DFC1
:1006D40085E88A95F1F72FC0AA93E881F0E0ED5FF1
:1006E400F64FE081A981AE0FEBDFE981E0930709C2
:1006F400E881E093080922960895AA93A881AA3074
:1007040031F0E0910909A0910709AE1758F0E0E033
:10071400EA93A0910809AF5FA0930809DDDFA881DF
:10072400AA3049F0E0910709EF5FE0930709C09A06
:10073400A881C6DFC09821960895BA93AA931A9304
:10074400A981BA81ED91A983BA831E2FE03019F0F3
:10075400A12FD3DFF5CF10C0BA93AA931A93E981DE
:10076400FA813196E983FA833197E4911E2FE030C0
:1007740019F0A12FC2DFF3CF188123960895A8E2C0
:10078400A09FF001A19FF00D0895E65CF94FFA9344
:10079400EA93AAE6B8E00E942D03E0300895E652F9
:1007A400F94FFA93EA93AAE6B8E00895FA93EA9324
:1007B400AAE6B8E00E942D03E0300895E2E9F8E0EB
:1007C400FA93EA93DCCFEE230E2EFD0121F0EE0F17
:1007D400FF1F0A94E1F70895FA9FF02DEB9FF00DA7
:1007E400EA9FE02DF10D0895ED91FC911197089584
:00000001FF
